:100000000C943E000C9448000C9448000C9448005A
:100010000C9448000C9448000C9448000C94480040
:100020000C9448000C9448000C9448000C94480030
:100030000C9448000C9448000C9448000C94480020
:100040000C9448000C9448000C9448000C94480010
:100050000C9448000C9448000C9448000C94480000
:100060000C9448000C9448000C9448000C944800F0
:100070000C9448000C9448000C94480011241FBEB6
:10008000CFEFD8E0DEBFCDBF0E943C020C945C03F2
:100090000C940000FC01118210820895FC01718310
:1000A00060830895FC01718360830895FC01808161
:1000B0009181860F971F918380830895FC01808131
:1000C000918108950F931F93CF93DF93EC01CB01A0
:1000D000042F10E068817981A8010E9444034881BF
:1000E0005981040F151F19830883DF91CF911F9148
:1000F0000F9108950F931F93CF93DF93EC01CB01E2
:10010000042F10E068817981A8010E94340348819E
:100110005981040F151F19830883DF91CF911F9117
:100120000F91089581E0FB012081FA01908129134C
:1001300080E008959091C00095FFFCCF8093C600A9
:1001400008950F931F93CF939C01C62F80E3820FD6
:100150002A303105C0F0EAE0F0E0C901BF010E9499
:1001600020038C01C901801B910BBF010E94200359
:10017000CB0160E00E94A10080E3800F0E949A0002
:10018000CC2331F08AE0CF911F910F910C949A000B
:10019000CF911F910F9108959F709093C500809308
:1001A000C40080E28093C0006370772762307105DD
:1001B00059F06330710561F088E16130710529F013
:1001C00086E08093C200089580E18093C100F8CF5B
:1001D00088E0FBCF8091C00087FD07C08FE19EE4DF
:1001E0000197F1F700C00000F5CF8091C600089597
:1001F00061E00C94A100CF93DF93EC0189910E9400
:100200009A00FE01319780818111F8CF8AE0DF9159
:10021000CF910C949A00CF93DF93EC0189910E94C7
:100220009A00FE01319780818111F8CF8AE0DF9139
:10023000CF910C949A009A01823019F198F4062E0D
:1002400001C0220F0A94EAF781110FC082B141E088
:1002500050E001C0440F6A95EAF740954823242BEB
:1002600022B908958330F1F0089535B181E090E02E
:1002700001C0880F6A95EAF780958323282B25B95A
:10028000089548B181E090E0062E01C0880F0A94DD
:10029000EAF78095842301C0220F6A95EAF7282B9C
:1002A00028B908954BB181E090E0062E01C0880F77
:1002B0000A94EAF78095842301C0220F6A95EAF731
:1002C000282B2BB908950F93FC0183E080831182C2
:1002D00062834483238305830F9108951F93CF93F3
:1002E000DF93EC01142F462F50E06C8170E08A817F
:1002F0000E941B01412F50E06D8170E08B81DF91E6
:10030000CF911F910C941B01FC0160830895FC01A7
:100310002081223051F028F4211111C040E061E029
:1003200010C040E0233061F00895FC0121812223B8
:1003300019F0213041F0089521E0FC01218341E0D2
:1003400060E00C946E01FC011182E8CFFC01838116
:10035000082E01C0660F0A94EAF792819230D1F11B
:10036000C8F441E050E091111EC041E050E020810E
:100370003181220F331F821713068CF492B19A0138
:10038000082E01C0220F0A94EAF72095292322B9EA
:100390008F5FEDCF41E050E09330A9F1089582B135
:1003A000682B62B9089520813181220F331F821793
:1003B000130664F495B19A01082E01C0220F0A9425
:1003C000EAF72095292325B98F5FEDCF85B1682BFA
:1003D00065B9089541E050E020813181220F331F3B
:1003E0008217130664F498B19A01082E01C0220FF7
:1003F0000A94EAF72095292328B98F5FEDCF88B1B9
:10040000682B68B9089520813181220F331F82172C
:10041000130664F49BB19A01082E01C0220F0A94BE
:10042000EAF7209529232BB98F5FEDCF8BB1682B8D
:100430006BB90895FC01CB01B9019183808342839C
:100440008330910581F08430910599F0029729F469
:100450002530310510F064E070E07483638360E060
:10046000CF010C94A60123303105B8F362E070E0AF
:10047000F4CF70E060E0F1CFCDB7DEB76B970FB689
:10048000F894DEBF0FBECDBF8FEF81B984B987B9B5
:100490008CEF8AB961E070E083E390E00E94CC00C9
:1004A0008E01095E1F4F70E060E0C8010E944E009F
:1004B000F02EE12E0E94EA008B8F41E0BE01655EC6
:1004C0007F4F8F2D9E2D0E9462008B8D8F3F91F765
:1004D00070E060E08F2D9E2D0E9452003E0187E06B
:1004E000680E711C01E020E040E060E0C3010E9462
:1004F000630103E020E042E060E0FE0131964F013D
:10050000CF010E9463015E01F2E1AF0EB11C30E049
:1005100020E042E064E070E0C5010E941A026E0132
:100520008DE0C80ED11C22E030E040E063E070E0D6
:10053000C6010E941A0210E084E0482E512C00E00F
:1005400041E0BE01665E7F4F8F2D9E2D0E947A0096
:1005500041E0BE01675E7F4F8F2D9E2D0E947A0085
:100560009A8D95B9913049F1112351F3953409F4DD
:100570003EC0B0F4993109F441C050F49831C9F14A
:10058000993111F09230F1F010E048C011E0D8CF6D
:100590009434D1F7898D60E087FD61E0C4010FC01C
:1005A000913C71F19F3FB1F1903C71F78F2D9E2DE1
:1005B0000E945E00082F598CE7CF60E0C3010E94C3
:1005C0008401E2CF642DC6010E94A60190E080E084
:1005D000298D2817190649F044F0EFE4F3EC319720
:1005E000F1F700C000000196F3CF4394CDCF63E054
:1005F000D5CF698DC5010E94A601C6CF60E0FACFB4
:10060000552011F25A94602F70E08F2D9E2D0E947C
:100610005200BACF61E0C3010E948401C4010E946C
:100620008701C3010E948701112309F4AFCF90E035
:1006300080E06B960FB6F894DEBF0FBECDBF089575
:10064000AA1BBB1B51E107C0AA1FBB1FA617B707F8
:1006500010F0A61BB70B881F991F5A95A9F7809514
:100660009095BC01CD010895DC01CB01FC01F99905
:10067000FECF06C0F2BDE1BDF89A319600B40D92EE
:1006800041505040B8F70895DC01CB0103C02D91D3
:100690000E944F0341505040D0F70895262FF999FA
:1006A000FECF1FBA92BD81BD20BD0FB6F894FA9A55
:0C06B000F99A0FBE01960895F894FFCF50
:00000001FF
