:100000000C943E000C9453000C9453000C94530039
:100010000C9453000C9453000C9453000C94530014
:100020000C9453000C9453000C9453000C94530004
:100030000C9453000C9453000C9453000C945300F4
:100040000C9453000C9453000C9453000C945300E4
:100050000C9453000C9453000C9453000C945300D4
:100060000C9453000C9453000C9453000C945300C4
:100070000C9453000C9453000C94530011241FBE95
:10008000CFEFD8E0DEBFCDBF11E0A0E0B1E0E0EE01
:10009000FFE002C005900D92A631B107D9F70E948A
:1000A00074050C94EE070C9400000E94B90083E0E4
:1000B00091E00C94CA009091C00095FFFCCF809312
:1000C000C60008950F931F93CF939C01C62F80E322
:1000D000820F2A303105C0F0EAE0F0E0C901BF012B
:1000E0000E949A068C01C901801B910BBF010E94DE
:1000F0009A06CB0160E00E94620080E3800F0E94BC
:100100005B00CC2331F08AE0CF911F910F910C94CA
:100110005B00CF911F910F9108959F709093C50040
:100120008093C40080E28093C000637077276230C0
:10013000710559F06330710561F088E16130710536
:1001400029F086E08093C200089580E18093C10089
:10015000F8CF88E0FBCF8091C00087FD07C08FE11A
:100160009EE40197F1F700C00000F5CF8091C60032
:10017000089561E00C946200CF93DF93EC018991C4
:100180000E945B00FE01319780818111F8CFDF91E1
:10019000CF910895CF93DF93EC0189910E945B008A
:1001A000FE01319780818111F8CFDF91CF910895C1
:1001B000FC0182E080839AE0918394E1928392E350
:1001C0009383209100013091010140910201268327
:1001D000378340871286118691E0938784B98DE03A
:1001E00081B90895FC0182E080838AE0818384E103
:1001F000828382E383838091000190910101A09129
:10020000020186839783A0871286118663878DE11A
:1002100084B98DE081B90895FC0181850895FC01C0
:1002200092B1808101C0660F8A95EAF7937E962B82
:1002300092B90895FC0163870895FC011286118626
:1002400030E020E067E070E0B5B1A081CB010A2E7C
:1002500001C0880F0A94EAF780958B23A90102C098
:10026000440F551FAA95E2F7842B85B98FE19EE4D0
:100270000197F1F700C0000083B181FB442740F9EA
:1002800050E0CB01821B930BDA0102C0AA0FBB1F07
:100290008A95E2F7818592858A2B9B2B92878187AD
:1002A0002F5F3F4F2830310579F608954F925F92C6
:1002B0006F927F928F929F92AF92BF92CF92DF9276
:1002C000EF92FF920F931F93CF93DF9300D000D054
:1002D0000F92CDB7DEB76C01DC011B968C9181309B
:1002E00009F0FBC0CE0101960E94480561E0CE01F5
:1002F00001960E945105F60192878187CE010196F1
:100300000E944E0501E014E0D60119968D919C9152
:100310009C0150E040E02A833B834C835D83CA010B
:10032000B9010E9420074B015C0120E030E040E869
:100330005AE36A839B828C83BD826A817B818C8134
:100340009D810E94810720E030E040EA50E46A830A
:100350007B838C839D836A817B818C819D810E94BC
:1003600081072B013C01C801B0E0A0E08A839B8398
:10037000AC83BD83B801CD010E9420077B018C01B5
:1003800026E636E646EE5EE34A825B826C827D823A
:100390006A817B818C819D810E941B0718160CF459
:1003A000A4C020EB32E440E753E4EA82FB820C83F2
:1003B0001D836A817B818C819D810E94810720E061
:1003C00030E040EA50E46A837B838C839D836A81BA
:1003D0007B818C819D810E94A8052B013C012BE42F
:1003E0003AEE44E05EE3EA82FB820C831D836A817D
:1003F0007B818C819D810E94810720E030E040EA72
:1004000050E46A837B838C839D836A817B818C81AA
:100410009D810E94A8059B01AC018A829B82AC82CF
:10042000BD826A817B818C819D810E94AE069B0189
:10043000AC014A825B826C827D826A817B818C8185
:100440009D810E94A8052DE33AE047ED5EE36A83B3
:100450007B838C839D836A817B818C819D810E94BB
:10046000AE066A837B838C839D836A817B818C81CA
:100470009D810E941A06D60115967C936E9314975F
:10048000D60114968D919C919C0150E040E02A8306
:100490003B834C835D83CA01B9010E9420076A83B4
:1004A0007B838C839D836A817B818C819D810F906E
:1004B0000F900F900F900F90DF91CF911F910F91A0
:1004C000FF90EF90DF90CF90BF90AF909F908F9074
:1004D0007F906F905F904F90089581E082B9C60140
:1004E0000E941D010FEF10E00FCF2FE832EC45EF17
:1004F0005EE34A825B826C827D826A817B818C8131
:100500009D810E941B0718160CF46EC029EC3EEA70
:100510004DE953E4EA82FB820C831D836A817B816F
:100520008C819D810E94810720E030E040EA50E408
:100530006A837B838C839D836A817B818C819D818F
:100540000E94A8052B013C012AE63DE443EF5CE351
:10055000EA82FB820C831D836A817B818C819D8171
:100560000E94810720E030E040EA50E46A837B8308
:100570008C839D836A817B818C819D810E94A805EB
:100580009B01AC018A829B82AC82BD826A817B81A5
:100590008C819D810E94AE069B01AC014A825B82E8
:1005A0006C827D826A817B818C819D810E94A805FD
:1005B0002DE33AE047ED5EE36A837B838C839D8382
:1005C0006A817B818C819D810E94AE066A837B83D8
:1005D0008C839D836A817B818C819D810E941A0618
:1005E000F601758364834CCF2CE53FE842E05FE37E
:1005F0004A825B826C827D826A817B818C819D8153
:100600000E941B0718161CF12FE83BEA48E853E448
:10061000EA82FB820C831D836A817B818C819D81B0
:100620000E94810720E030E040EA50E46A837B8347
:100630008C839D836A817B818C819D810E94A8052A
:100640002B013C012BEC31EA45E65FE3CCCE21E700
:100650003DE34AE05FE34A825B826C827D826A818D
:100660007B818C819D810E941B0718161CF12AEA50
:1006700030E54AE653E4EA82FB820C831D836A81FB
:100680007B818C819D810E94810720E030E040EADF
:1006900050E46A837B838C839D836A817B818C8118
:1006A0009D810E94A8052B013C0125EF3AE449E118
:1006B0005EE34ECF21EE3AE744E15FE34A825B829C
:1006C0006C827D826A817B818C819D810E941B0767
:1006D00018161CF129E731E344E853E4EA82FB826F
:1006E0000C831D836A817B818C819D810E9481079F
:1006F00020E030E040EA50E46A837B838C839D8372
:100700006A817B818C819D810E94A8052B013C011F
:1007100023E83FE24CEC5DE366CE22E538EB4EE1A8
:100720005FE34A825B826C827D826A817B818C81FD
:100730009D810E941B0718161CF128E53AE54CE53F
:1007400053E4EA82FB820C831D836A817B818C8166
:100750009D810E94810720E030E040EA50E46A83F6
:100760007B838C839D836A817B818C819D810E94A8
:10077000A8052B013C0127E433E048E35EE3E8CE23
:100780002BE734E14EE25FE34A825B826C827D823A
:100790006A817B818C819D810E941B0718161CF148
:1007A00020E53DE347E853E4EA82FB820C831D83A6
:1007B0006A817B818C819D810E94810720E030E0ED
:1007C00040EA50E46A837B838C839D836A817B81CA
:1007D0008C819D810E94A8052B013C0125EE30ED06
:1007E00042EA5DE300CE2CE53FE842E45FE34A8263
:1007F0005B826C827D826A817B818C819D810E947B
:100800001B0718161CF127E239E440E953E4EA8299
:10081000FB820C831D836A817B818C819D810E9478
:10082000810720E030E040EA50E46A837B838C83D8
:100830009D836A817B818C819D810E94A8052B010B
:100840003C0129E039EF40E25DE382CE26EF38E259
:100850004CE55FE34A825B826C827D826A817B81A8
:100860008C819D810E941B0718161CF12FEA30E530
:100870004CE853E4EA82FB820C831D836A817B810E
:100880008C819D810E94810720E030E040EA50E4A5
:100890006A837B838C839D836A817B818C819D812C
:1008A0000E94A8052B013C0123EB3BE742E75DE3F7
:1008B0009ACD28E431EE4AE75FE34A825B826C829C
:1008C0007D826A817B818C819D810E941B07181625
:1008D0001CF125ED37EA4CE753E4EA82FB820C83F6
:1008E0001D836A817B818C819D810E94810720E02C
:1008F00030E040EA50E46A837B838C839D836A8185
:100900007B818C819D810E94A8052B013C0124E004
:1009100036E54EE05EE31CCE23E333E343E95FE3D9
:100920004A825B826C827D826A817B818C819D811F
:100930000E941B0718161CF127E339EC4FE753E41C
:10094000EA82FB820C831D836A817B818C819D817D
:100950000E94810720E030E040EA50E46A837B8314
:100960008C839D836A817B818C819D810E94A805F7
:100970002B013C0128EB3FEA43E05EE334CD25E860
:100980003BEE41EB5FE34A825B826C827D826A814F
:100990007B818C819D810E941B0718161CF123E925
:1009A00038EE40E753E4EA82FB820C831D836A81C0
:1009B0007B818C819D810E94810720E030E040EAAC
:1009C00050E46A837B838C839D836A817B818C81E5
:1009D0009D810E94A8052B013C0122E133E840E4FF
:1009E0005EE3B6CD2EEA37E441EE5FE34A825B82F6
:1009F0006C827D826A817B818C819D810E941B0734
:100A000018161CF12FEC36E14FE553E4EA82FB8225
:100A10000C831D836A817B818C819D810E9481076B
:100A200020E030E040EA50E46A837B838C839D833E
:100A30006A817B818C819D810E94A8052B013C01EC
:100A400026ED35EC4DE85EE3CECC24E439E945E60D
:100A500053E4EA82FB820C831D836A817B818C8153
:100A60009D810E94810720E030E040EA50E46A83E3
:100A70007B838C839D836A817B818C819D810E9495
:100A8000A8052B013C0127ED34E34FE65EE360CD82
:100A900010927C0086E880937A00089510927A0084
:100AA000089580917C00807E80937C0080917C0002
:100AB0006770682B60937C0080917A0080648093DB
:100AC0007A0080917A0084FFFCCF80917A00806167
:100AD00080937A00209178008091790090E0982F9F
:100AE0008827820F911D0895CDB7DEB760970FB6A6
:100AF000F894DEBF0FBECDBF60E08E010F5F1F4FC9
:100B0000C8010E94F20061E070E08FEC90E00E946A
:100B10008D00C8010E94560120E030E040E251E41F
:100B20006D877E878F87988B6D857E858F85988969
:100B30000E94A8056D877E878F87988B6D857E853F
:100B40008F8598890E941A06CB010E945500E1CF3B
:100B50000E94BC050C9460060E94590658F00E9441
:100B6000520640F029F45F3F29F00C9449065111D8
:100B70000C9494060C944F060E94710668F3992316
:100B8000B1F3552391F3951B550BBB27AA27621789
:100B90007307840738F09F5F5F4F220F331F441F96
:100BA000AA1FA9F335D00E2E3AF0E0E832D09150CA
:100BB0005040E695001CCAF72BD0FE2F29D0660FB7
:100BC000771F881FBB1F261737074807AB07B0E8FA
:100BD00009F0BB0B802DBF01FF2793585F4F3AF000
:100BE0009E3F510578F00C9449060C9494065F3FA3
:100BF000E4F3983ED4F3869577956795B795F79586
:100C00009F5FC9F7880F911D9695879597F908956D
:100C1000E1E0660F771F881FBB1F62177307840709
:100C2000BA0720F0621B730B840BBA0BEE1F88F718
:100C3000E09508950E94790688F09F5798F0B92FA3
:100C40009927B751B0F0E1F0660F771F881F991F01
:100C50001AF0BA95C9F714C0B13091F00E9493060A
:100C6000B1E008950C949306672F782F8827B85F1A
:100C700039F0B93FCCF3869577956795B395D9F759
:100C80003EF490958095709561957F4F8F4F9F4F63
:100C9000089597F99F6780E870E060E008959FEFFE
:100CA00080EC089500240A94161617061806090603
:100CB000089500240A9412161306140605060895D2
:100CC000092E0394000C11F4882352F0BB0F40F45A
:100CD000BF2B11F460FF04C06F5F7F4F8F4F9F4F9A
:100CE000089557FD9058440F551F59F05F3F71F01C
:100CF0004795880F97FB991F61F09F3F79F0879583
:100D00000895121613061406551FF2CF4695F1DF0B
:100D100008C0161617061806991FF1CF869571059B
:100D2000610508940895E894BB2766277727CB01CF
:100D300097F90895AA1BBB1B51E107C0AA1FBB1F4F
:100D4000A617B70710F0A61BB70B881F991F5A9557
:100D5000A9F780959095BC01CD0108955058BB2707
:100D6000AA270E94C6060C9460060E94520638F01C
:100D70000E94590620F039F49F3F19F426F40C9490
:100D80004F060EF4E095E7FB0C944906E92F0E940C
:100D9000710658F3BA17620773078407950720F0A6
:100DA00079F4A6F50C9493060EF4E0950B2EBA2F69
:100DB000A02D0B01B90190010C01CA01A001112461
:100DC000FF27591B99F0593F50F4503E68F11A160D
:100DD000F040A22F232F342F4427585FF3CF46959E
:100DE00037952795A795F0405395C9F77EF41F16C0
:100DF000BA0B620B730B840BBAF09150A1F0FF0F8A
:100E0000BB1F661F771F881FC2F70EC0BA0F621F75
:100E1000731F841F48F4879577956795B795F79565
:100E20009E3F08F0B0CF9395880F08F09927EE0FFA
:100E30009795879508950E945D0708F481E00895CD
:100E4000E89409C097FB3EF4909580957095619564
:100E50007F4F8F4F9F4F9923A9F0F92F96E9BB271A
:100E60009395F695879577956795B795F111F8CF96
:100E7000FAF4BB0F11F460FF1BC06F5F7F4F8F4F01
:100E80009F4F16C0882311F096E911C0772321F0F7
:100E90009EE8872F762F05C0662371F096E8862F8F
:100EA00070E060E02AF09A95660F771F881FDAF7E6
:100EB000880F9695879597F90895990F0008550F13
:100EC000AA0BE0E8FEEF16161706E807F907C0F0D0
:100ED00012161306E407F50798F0621B730B840BD8
:100EE000950B39F40A2661F0232B242B252B21F4B2
:100EF00008950A2609F4A140A6958FEF811D811D52
:100F000008950E9494070C9460060E94520638F0DF
:100F10000E94590620F0952311F00C9449060C9478
:100F20004F0611240C9494060E94710670F3959F4D
:100F3000C1F3950F50E0551F629FF001729FBB27D0
:100F4000F00DB11D639FAA27F00DB11DAA1F649F6C
:100F50006627B00DA11D661F829F2227B00DA11D1F
:100F6000621F739FB00DA11D621F839FA00D611DA5
:100F7000221F749F3327A00D611D231F849F600DC6
:100F8000211D822F762F6A2F11249F5750409AF0EF
:100F9000F1F088234AF0EE0FFF1FBB1F661F771F7B
:100FA000881F91505040A9F79E3F510580F00C9446
:100FB00049060C9494065F3FE4F3983ED4F386957B
:100FC00077956795B795F795E7959F5FC1F7FE2BE6
:100FD000880F911D9695879597F90895F894FFCFFE
:100FE0000101010A2D2D2D2D2D2D2D2D2D2D2D2DD8
:060FF0002D2D2D2D2D001A
:00000001FF
