:100000000C943F000C9467000C9467000C946700FC
:100010000C9467000C9467000C9440010C946700EA
:100020000C9467000C9467000C9467000C946700B4
:100030000C9467000C9467000C9467000C946700A4
:100040000C9467000C9467000C94C9010C94670031
:100050000C9467000C9467000C9467000C94670084
:100060000C9467000C9467000C9467000C94670074
:100070000C9467000C9467000C946700D60C112454
:100080001FBECFEFD8E0DEBFCDBF12E0A0E0B1E0F1
:10009000EAE7FEE102C005900D92A438B107D9F756
:1000A00022E0A4E8B2E001C01D92A93FB207E1F747
:1000B00010E0CFE3D0E004C02197FE010E94F00DD4
:1000C000CE33D107C9F70E94CD0C0C943B0F0C9492
:1000D000000088E892E00C94780C682F88E892E0A1
:1000E0000C94670CEF92FF920F931F93CF93DF93C3
:1000F00000D000D0CDB7DEB72091960230919702A4
:10010000409198025091990269837A838B839C83F2
:1001100069817A818B819C810E94DD0C7B018C013D
:100120006983FA828B831C8369817A818B819C81AC
:100130000E94490D69837A838B839C8389819A818C
:1001400060E777E10E94DC0D262FA701B8014093FC
:1001500096025093970260939802709399022093AD
:10016000900264E670E00E94DC0D6093910280933F
:1001700092020F900F900F900F90DF91CF911F91EF
:100180000F91FF90EF900895E82FE770E15090E015
:10019000E43020F4F0E0EF5FFE4F9081887380310F
:1001A00091F08032C1F1883069F461E0913019F04A
:1001B000923029F462E088E892E00C94670C64E0E5
:1001C0009330C9F30895913071F4109289028AEC4A
:1001D00091E00E94C4028FED91E00E94C40288EC7D
:1001E00091E00C94C402923051F481E08093890232
:1001F0008AEC91E00E94C4028BEF91E0EECF933045
:1002000009F782E0809389028AEC91E00E94C4029F
:1002100086E192E0E2CF913061F461E08AE992E018
:100220000E947D0382E392E00E94C4028BE492E08C
:10023000D4CF923061F460E08AE992E00E947D03BD
:1002400082E392E00E94C40283E592E0C6CF93303D
:1002500009F0B8CF8BE592E00E94C40280918B0236
:10026000811106C081E080938B028FE692E0B5CFCA
:10027000813009F0B4CF10928B028BE792E0ADCFC2
:100280001F920F920FB60F9211242F933F934F930B
:100290005F936F937F938F939F93AF93BF93EF93EE
:1002A000FF93CF93DF9300D000D0CDB7DEB7F894A3
:1002B000809186028093870286B18C7F809386022C
:1002C0008091840263E00E94D00D913089F19230D8
:1002D00009F43EC08FE187B926E042E062E0CE013A
:1002E00001960E94780667E0CE0101960E94AB0657
:1002F00080EE80936D00809184028F5F80938402F2
:1003000078940F900F900F900F90DF91CF91FF9105
:10031000EF91BF91AF919F918F917F916F915F917D
:100320004F913F912F910F900FBE0F901F901895F6
:1003300080EE87B926E042E062E0CE0101960E949D
:10034000780668E3CE0101960E94AB068CE1D1CF1E
:10035000809100018823B1F08091870290918602FC
:1003600089238695869580938502809185020E94D7
:10037000C4002FEF80E792E0215080409040E1F7E9
:1003800000C000008091000191E089278093000166
:10039000B2CF1F920F920FB60F9211242F933F935B
:1003A0004F935F936F937F938F939F93AF93BF937D
:1003B000EF93FF93F89467E177EB81E59FE30E9469
:1003C00072007894FF91EF91BF91AF919F918F91BF
:1003D0007F916F915F914F913F912F910F900FBE41
:1003E0000F901F901895F894E8E6F0E08081846003
:1003F0008083EDE6F0E080818C61808383E084BDC2
:1004000084E185BD81E080936E0016BC78940895E8
:100410001F93CF93DF93EC01162F60E008960E94A4
:10042000AB06612FCE010E94AB06249661E0CE019F
:100430000E94AB0660E0CE01DF91CF911F910C943A
:10044000AB0661E008960C94AB068F929F92AF9238
:10045000BF92CF92DF92EF92FF920F931F93CF93B1
:10046000DF9300D000D0CDB7DEB75C01490184E056
:10047000F501848724E0CE0101960E9478068981E7
:100480009A81AB81BC81F50180839183A283B38380
:100490000483158386829782C086D186E286F3869E
:1004A000C5010F900F900F900F90DF91CF911F918A
:1004B0000F91FF90EF90DF90CF90BF90AF909F9003
:1004C0008F900C9421029091C00095FFFCCF8093F7
:1004D000C6000895CF93DF939C0180E3820F2A30FA
:1004E000310598F0EAE0F0E0C901BF010E94DC0D9F
:1004F000EC01C9018C1B9D0BBF010E94DC0DCB01DF
:1005000060E00E946A028C2F805DDF91CF910C9495
:1005100063029F709093C5008093C40080E2809333
:10052000C000637077276230710559F06330710540
:1005300061F088E16130710529F086E08093C200A6
:10054000089580E18093C100F8CF88E0FBCF8091CF
:10055000C00087FD07C08FE19EE40197F1F700C05E
:100560000000F5CF8091C600089561E00C946A0206
:10057000CF93DF93EC018991882319F00E946302E5
:10058000FACFDF91CF910895CF93DF93EC0189915A
:10059000882319F00E946302FACFDF91CF9108956A
:1005A0008AE00C946302AF92BF92CF92DF92EF92F7
:1005B000FF920F931F93CF93DF9300D000D0CDB75E
:1005C000DEB7FC0184E690E09183808388EC90E0C4
:1005D0009383828384EF91E09583848317821682CC
:1005E000118610861386128680910501909106016E
:1005F000A091070184879587A687108A1786618B4B
:10060000228B338B448B558BD801C701868B978BFC
:10061000A08FB18FA28EB38EC48ED58E0F900F9007
:100620000F900F90DF91CF911F910F91FF90EF905E
:10063000DF90CF90BF90AF900895CF92DF92EF926E
:10064000FF920F931F93CF93DF9300D00F92CDB7FC
:10065000DEB7DC01209108013091090140910A01C7
:1006600029833A834B8314960D911C911597AE0103
:100670004F5F5F4FBE016C5F7F4F80E0FA01C1901A
:10068000AF01D12C96012D5F3F4F220F331F2A0F50
:100690003B1FF9012081318191E02017310780F45F
:1006A0001296ED90FC90139792E02E153F0540F4C2
:1006B000ED90FC90119790E02E153F0508F093E027
:1006C000F601EA0FFB1F2485291381E09487641744
:1006D0007507A1F60F900F900F90DF91CF911F91AA
:1006E0000F91FF90EF90DF90CF900895FC018785E8
:1006F0009089089546960C94AB06FC01618B089591
:10070000BF92CF92DF92EF92FF920F931F93CF93FE
:10071000DF93EC01188A1F8607E010E087E0B82E0F
:100720006E018AE1C80ED11C6B2D601BC6010E94B0
:10073000AB068FE19EE40197F1F700C0000083B1A2
:1007400081FBEE24E0F8F12C9701002E02C0220F6D
:10075000331F0A94E2F78F859889822B932B988B0D
:100760008F870150110900F7DF91CF911F910F91F1
:10077000FF90EF90DF90CF90BF9008952F923F921F
:100780004F925F926F927F928F929F92AF92BF92A1
:10079000CF92DF92EF92FF920F931F93CF93DF934D
:1007A000CDB7DEB765970FB6F894DEBF0FBECDBFED
:1007B0002C019E012B5F3F4F3F832E83C9010E9476
:1007C0004B0780910B0190910C01A0910D01B0910C
:1007D0000E0189839A83AB83BC83CE0101969F87E8
:1007E0008E87A1E0B4E0BD87AC87612CBE81BA8B57
:1007F000EF81EB8B92012A5E3F4F3D8B2C8BC20128
:100800004296998B888BAE85BF852D90BF87AE872A
:10081000622D8C899D890E94AB06F2018189882313
:1008200009F408C1813091F460E0888999890E94B7
:10083000AB068A899B890E945407D20150969C93EB
:100840008E931F97B1E0BC87E4E0ED87D2011F963D
:10085000CD90DC90C6016C857D850E94DC0DCB01BE
:10086000B0E0A0E088879987AA87BB87CD010E9466
:100870006D0E20E030E040EA50E4688779878A878F
:100880009B87688579858A859B850E94CE0E762E0A
:10089000872E982EA92EAC85BD85CD01B0E0A0E0B5
:1008A00088879987AA87BB87BC01CD010E946D0EFE
:1008B0007B018C01C601B0E0A0E088879987AA87F8
:1008C000BB87B601CD010E946D0E362EB72E6C018E
:1008D00021E73DE34AE05FE3788689869A86AB8626
:1008E000688579858A859B850E94F60D87FFAEC055
:1008F00027E736ED43E853E4E886F9860A871B8745
:10090000688579858A859B850E94CE0E20E030E03F
:1009100040EA50E4688779878A879B87688579856C
:100920008A859B850E94FB0D762E872E982EA92EF8
:1009300027E138E440ED5DE3E886F9860A871B8706
:10094000688579858A859B850E94CE0E20E030E0FF
:1009500040EA50E4688779878A879B87688579852C
:100960008A859B850E94FB0D9B01AC013886B98668
:10097000CA86DB86688579858A859B850E94DC0C22
:100980009B01AC01788689869A86AB8668857985D5
:100990008A859B850E94FB0D2DE33AE047ED5EE3DF
:1009A000688779878A879B87688579858A859B850B
:1009B0000E94DC0C688779878A879B8768857985A0
:1009C0008A859B850E94500DCB01E22DF0E0EE0F51
:1009D000FF1FE40DF51D268137812617370711F01B
:1009E0006624639497838683AE81BF81EE85FF85FD
:1009F000AE17BF0709F007CF8A899B890E9451076C
:100A0000862D65960FB6F894DEBF0FBECDBFDF9181
:100A1000CF911F910F91FF90EF90DF90CF90BF90FB
:100A2000AF909F908F907F906F905F904F903F908E
:100A30002F90089561E0888999890E94AB06C201D0
:100A40000E948003FFEFFC871D8600CF22E538EB74
:100A50004EE15FE3788689869A86AB8668857985DC
:100A60008A859B850E94F60D87FF25C02DED35EB0D
:100A70004FE653E4E886F9860A871B8768857985FF
:100A80008A859B850E94CE0E20E030E040EA50E44B
:100A9000688779878A879B87688579858A859B851A
:100AA0000E94FB0D762E872E982EA92E2AEA32E878
:100AB00041E15EE341CF2BE734E14EE25FE378862C
:100AC00089869A86AB86688579858A859B850E940A
:100AD000F60D87FF25C020E53DE347E853E4E886AF
:100AE000F9860A871B87688579858A859B850E9498
:100AF000CE0E20E030E040EA50E4688779878A87AC
:100B00009B87688579858A859B850E94FB0D762E5B
:100B1000872E982EA92E25EE30ED42EA5DE30CCF0C
:100B200026EF38E24CE55FE3788689869A86AB86C5
:100B3000688579858A859B850E94F60D87FF25C08B
:100B40002BE238EE4DE853E4E886F9860A871B87E6
:100B5000688579858A859B850E94CE0E20E030E0ED
:100B600040EA50E4688779878A879B87688579851A
:100B70008A859B850E94FB0D762E872E982EA92EA6
:100B800028EA35E34DE45DE3D7CE25E83BEE41EBC3
:100B90005FE3788689869A86AB86688579858A85BB
:100BA0009B850E94F60D87FF25C025E530ED47E7C0
:100BB00053E4E886F9860A871B87688579858A85E4
:100BC0009B850E94CE0E20E030E040EA50E468872A
:100BD00079878A879B87688579858A859B850E9426
:100BE000FB0D762E872E982EA92E2FEB3DE74DE19B
:100BF0005EE3A2CE21E03DE643E653E4E886F986D3
:100C00000A871B87688579858A859B850E94CE0E19
:100C100020E030E040EA50E4688779878A879B8744
:100C2000688579858A859B850E94FB0D762E872EA7
:100C3000982EA92E2EEA36EB42E85EE37DCE0F9386
:100C40001F93FC0140835183628373830483158364
:100C5000268337831F910F9108950F931F93CF938E
:100C6000DF93EC01162F042F61E017FD60E0CE0149
:100C70000E94AB06CE01049607FD2DC061E00E94E4
:100C8000AB0617FF03C0119507FD01952FE832E071
:100C90001203C001139F900D11249093890080933B
:100CA00088000203C001039F900D112490938B00D4
:100CB00080938A0080918000806A80938000809178
:100CC000810082608093810010928200DF91CF9139
:100CD0001F910F91089560E00E94AB0617FDD3CFDE
:100CE000D4CFFC016083418381E0828383830895B4
:100CF000FC0160834183228381E090E001C0880F82
:100D00002A95EAF7815083830895FC0190819230FF
:100D1000A1F068F44181838191110DC020B130E0D0
:100D200002C0359527954A95E2F7822308959330BE
:100D300081F080E0089523B1F2CF86B190E0218167
:100D4000AC0102C0559547952A95E2F79A01838137
:100D5000ECCF89B1F3CFFC018381282F681708F409
:100D6000262F5081523029F190F44181511112C047
:100D700052B1042E01C0880F0A94EAF780958523AA
:100D800001C0220F4A95EAF7822B82B908955330A9
:100D900001F1089555B1042E01C0880F0A94EAF7B5
:100DA0008095852301C0220F4A95EAF7822B85B9E9
:100DB000089538B14181042E01C0880F0A94EAF7E2
:100DC0008095832301C0220F4A95EAF7822B88B9C8
:100DD00008953BB14181042E01C0880F0A94EAF7BF
:100DE0008095832301C0220F4A95EAF7822B8BB9A5
:100DF0000895FC0140835183628373830895CF93E8
:100E0000DF93D82FC92F0E948506882371F08FE1C8
:100E10009EE40197F1F700C000008D2F9C2F0E94E7
:100E20008506982F81E0911101C080E0DF91CF917C
:100E30000895CF93DF93EC018C818230C9F050F498
:100E400081110DC0CE010E94FF06882329F081E0A8
:100E50008C8302C0833029F0DF91CF91089583E025
:100E60008C83CE010E94FF068111F6CF82E0F0CF85
:100E70001C82F2CF08950C94FF06FC0181E094815E
:100E8000913009F080E00895FC0181E09481923076
:100E900009F080E0089510927C0086E880937A0043
:100EA000089510927A00089580917C00807E80934E
:100EB0007C0080917C00816080937C0080917A002E
:100EC000806480937A0080917A0084FFFCCF8091C7
:100ED0007A00806180937A00209178008091790077
:100EE00090E0982F8827820F911D08950F931F93EC
:100EF000CF93DF938C01C62FD42FFC0123812111C6
:100F000024C040E03AE0CC2371F08C2F632F0E9484
:100F1000D00DC82F892F022E01C0880F0A94EAF73E
:100F2000482B2C5FF0CF8D2FD0E05AE0882361F062
:100F3000652F0E94D00D292F0C2E01C0220F0A947C
:100F4000EAF7D22BCC5FF2CFC42F6C2F62956F7073
:100F5000C801CD960E9408026C2F6F70C801865B95
:100F60009F4F0E9408026D2F62956F70C801895AC9
:100F70009F4F0E9408026D2F6F70C8018C599F4FC0
:100F8000DF91CF911F910F910C9408020F931F9343
:100F9000CF93DF938C01C62FD42FC5960E942D06C8
:100FA000C7FDC195D7FDD1954D2F6C2FC801DF919D
:100FB000CF911F910F910C947607CF93DF93EC01A3
:100FC000CD960E942102CE01865B9F4F0E94210296
:100FD000CE01895A9F4F0E942102CE018C599F4F0A
:100FE000DF91CF910C9421021F93CF93DF93EC01FB
:100FF00082E08C831D81133009F4FCC058F4113059
:1010000009F444C0123009F4A6C08BE491E00E94B8
:10101000C4028AC0143009F43FC11530B1F78FE320
:1010200091E00E94C4024EE46EE4CE010E94C60725
:101030001EE4412F6EE4CE010E94C6072FE78AE12D
:1010400096E0215080409040E1F700C0000012502F
:101050001E3279F72FEF8EE994E2215080409040C4
:10106000E1F700C0000012E3412F6EE4CE010E94C0
:10107000C6072FE78AE196E0215080409040E1F7D3
:1010800000C000001E5F103579F74EC08FE091E080
:101090000E94C40243E26DEDCE010E94C6072FEF0D
:1010A0008EE994E2215080409040E1F700C00000BA
:1010B00043E263E2CE010E94C6072FEF83ED90E387
:1010C000215080409040E1F700C000004DED63E208
:1010D000CE010E94C6072FEF8EE994E22150804096
:1010E0009040E1F700C0000043E263E2CE010E94BD
:1010F000C6072FE38DE093E0215080409040E1F758
:1011000000C0000018E2412F612FCE010E94C607E7
:101110002FE38DE093E0215080409040E1F700C044
:1011200000001B5F143679F72FEF83ED90E3215019
:1011300080409040E1F700C0000040E060E0CE0158
:101140000E94C607CE010E94DD07CE01DF91CF913C
:101150001F910C9483098BE191E00E94C40243E249
:1011600063E2CE010E94C6072FEF8EE994E2215080
:1011700080409040E1F700C0000043E263E2CE010E
:101180000E94C6072FEF83ED90E3215080409040EE
:10119000E1F700C0000043E26DEDCE010E94C607FA
:1011A0002FEF8EE994E2215080409040E1F700C09B
:1011B000000043E263E2CE010E94C6072FE38DE008
:1011C00093E0215080409040E1F700C0000018E219
:1011D000412F612FCE010E94C6072FE38DE093E0DF
:1011E000215080409040E1F700C000001B5F1436A2
:1011F00079F79ACF87E291E00E94C40242E36EEC55
:10120000CE010E94C6072FEF89E698E12150804069
:101210009040E1F700C0000046E46AEBCE010E9476
:10122000C6072FEF8EE994E2215080409040E1F70D
:1012300000C0000040E060E0CE010E94C6072FE73A
:1012400088E391E0215080409040E1F700C0000029
:10125000412F612FCE010E94C6072FE788E391E05E
:10126000215080409040E1F700C000001D5F16361D
:1012700079F71EE5412F612FCE010E94C6072FEF9F
:1012800084E39CE0215080409040E1F700C00000E2
:101290001550153479F748CF83E391E00E94C402DA
:1012A0004EE46EE4CE010E94C6071EE44EE4612FB8
:1012B000CE010E94C6072FE78AE196E021508040C8
:1012C0009040E1F700C0000012501E3279F72FEF76
:1012D0008EE994E2215080409040E1F700C0000088
:1012E00012E34EE4612FCE010E94C6072FE78AE188
:1012F00096E0215080409040E1F700C000001E5F62
:10130000103579F711CF7F928F929F92AF92BF9253
:10131000CF92DF92EF92FF920F931F93CF93DF93C1
:10132000EC0181E08C836E0150E3C50ED11C5E019F
:1013300082E1A80EB11C8AE0E82EF12C95E0892EFE
:1013400024E0722EC6010E941907C5010E94BE0347
:10135000182FC5010E941D03082FC6010E944407D3
:10136000811192C1998191117DC098858B858917D2
:1013700050F199852C8530E02F5F3F4F81E0921727
:10138000130609F00CF480E098819130F1F499850E
:101390002C8530E02F5F3F4F9217130621F42A85EA
:1013A0009D85291710F4882369F28D858C598D87C6
:1013B0008D859C85843608F44CC084568D8781E0E9
:1013C000890F8C87F5CF81E0DFCF923031F09430F8
:1013D00019F1882309F4B6CFEBCF49859C85292FD5
:1013E00030E02F5F3F4F4217130639F42A853D85C1
:1013F000231B330B2E3C3F4F64F4491307C02A854F
:101400009D85291B330B223331051CF4882309F4F5
:1014100099CF8D858E5CCBCF49859C85292F30E077
:101420002F5F3F4F4217130639F42A853D85231B52
:10143000330B253B3F4F54F449133CC12A859D850E
:10144000291B330B293131050CF434C18D85875E9E
:10145000AECF8C858C3360F08C538C878B858F5FFF
:101460008B87F7CF923009F01FC1002309F46ACFB0
:1014700088858B8799859C879A859D878A3020F4FB
:1014800083E691E00E94C402888590E00E94B50244
:101490008FE691E00E94C40289858A3020F483E6B9
:1014A00091E00E94C402898590E00E94B5028FE617
:1014B00091E00E94C4028A858A3020F483E691E09C
:1014C0000E94C4028A8590E00E94B50285E691E000
:1014D0000E94C40289E691E00E94C402888D998D21
:1014E000B7010E94DC0DCB010E94B5028CE691E0B1
:1014F0000E94C402888D998DB7010E94DC0D0E9464
:10150000B50287E691E00E94C4028EE691E00E9457
:10151000C4028A8D9B8DB7010E94DC0DCB010E9415
:10152000B5028CE691E00E94C4028A8D9B8DB701C2
:101530000E94DC0D0E94B50287E691E00E94C40281
:1015400081E791E00E94C4028C8D9D8DB7010E94BD
:10155000DC0DCB010E94B5028CE691E00E94C40232
:101560008C8D9D8DB7010E94DC0D0E94B50287E62F
:1015700091E00E94C4029E8C0F8D18A182E0981603
:1015800001F1891548F089E791E0911002C084E7E4
:1015900091E00E94C40205C053E086E891E09516F0
:1015A000C1F38DE891E00E94C402023009F160F4B9
:1015B00089E791E0011102C084E791E00E94C40232
:1015C00007C08CE791E0E5CF86E891E00330B1F306
:1015D0008DE891E00E94C402123079F160F489E74D
:1015E00091E0111102C084E791E00E94C40207C09B
:1015F0008CE791E0E3CF86E891E01330B1F387E622
:1016000091E00E94C40281E098121AC0023051F5A4
:101610001230A1F59D8281E991E00E94C4028D8182
:1016200081112EC083E991E00E94C40285E991E016
:101630000E94C4020E94D00285CE8CE791E0D5CFF3
:1016400052E0951206C00230C9F41130B9F40D838E
:10165000E2CF83E0981212C0033051F4133071F4DA
:101660001D83D9CF013051F4133041F47D82D3CFA3
:10167000013021F4113011F48D82CDCF1D82CBCFFA
:1016800090E00E94B502D2CFCE01DF91CF911F91A1
:101690000F91FF90EF90DF90CF90BF90AF909F9011
:1016A0008F907F900C94F407913009F04BCE11117C
:1016B000DFCE48CE882309F445CEC8CE8F929F92C4
:1016C000AF92BF92CF92DF92EF92FF920F931F9350
:1016D000CF93DF93CDB7DEB764970FB6F894DEBF34
:1016E0000FBECDBF4C0181E0D4018C9311961C92AA
:1016F000119712961C92129713961C921397179695
:101700007C936E93169718961C92189719961C92B4
:1017100019971A961C921A971B961C921B971C9647
:101720001C921C971D961C9223E042E061E0CE01C2
:1017300001960E94780622E042E060E0CE01059624
:101740000E94780640E060E0CE0109960E94710692
:10175000A980BA80CB80DC808D819E81AF81B885E5
:1017600029853A854B855C857C018D0161E0C4014A
:1017700042960E94D30242E063E0CE0101960E94AD
:10178000710649815A816B817C81C401C0960E9497
:10179000F90646E063E0CE0101960E94710643E03F
:1017A00063E0CE0105960E94710609811A812B81A2
:1017B0003C814D815E816F817885C401C5960E9410
:1017C0001F0647E061E0CE0109960E94710645E0E0
:1017D00061E0CE010D960E947106C984DA84EB8423
:1017E000FC840D851E852F85388944E060E0C401A6
:1017F000CD960E94250247E061E0CE0101960E944D
:10180000710646E061E0CE0105960E947106C9802E
:10181000DA80EB80FC800D811E812F81388544E0C9
:1018200060E0C401865B9F4F0E94250247E063E0B1
:10183000CE0109960E94710640E062E0CE010D964D
:101840000E947106C984DA84EB84FC840D851E85B0
:101850002F85388944E060E0C401895A9F4F0E9477
:10186000250247E063E0CE0101960E94710641E047
:1018700062E0CE0105960E947106C980DA80EB8095
:10188000FC800D811E812F81388544E060E0C40119
:101890008C599F4F0E9425028DEF81B984B980EE4B
:1018A00087B990E39AB988B964960FB6F894DEBF09
:1018B0000FBECDBFDF91CF911F910F91FF90EF90A1
:1018C000DF90CF90BF90AF909F908F900895CF936F
:1018D000C62FFC01608387E991E00E94C4028C2F2F
:1018E00090E00E94B50281EB91E0CF910C94C4028C
:1018F000CF93DF93EC011C828E819F8161E070E0C9
:101900008038954209F042C083E390E00E9489024A
:1019100086EB91E00E94C40281E08B834DEC6BEA80
:10192000CE010E9476078FEF93ED20E38150904027
:101930002040E1F700C00000CE010E94DD071B82BD
:1019400043E663E6CE010E94C6078FEF99E628E1E1
:10195000815090402040E1F700C000004DE96DE962
:10196000CE010E94C6078FEF99E628E18150904092
:101970002040E1F700C0000040E060E0CE010E949E
:10198000C607CE01DF91CF910C9483098FEC90E0D4
:101990000E94890280EC91E0BDCF0E94F30188E8AB
:1019A00092E00E94780C90E080E0089560E875E293
:1019B00088E892E00C945E0B5058BB27AA270E943F
:1019C000F40C0C94960D0E94880D38F00E948F0D37
:1019D00020F039F49F3F19F426F40C94850D0EF491
:1019E000E095E7FB0C947F0DE92F0E94A70D58F3BB
:1019F000BA17620773078407950720F079F4A6F5F4
:101A00000C94C90D0EF4E0950B2EBA2FA02D0B01EE
:101A1000B90190010C01CA01A0011124FF27591B33
:101A200099F0593F50F4503E68F11A16F040A22F39
:101A3000232F342F4427585FF3CF469537952795AA
:101A4000A795F0405395C9F77EF41F16BA0B620BA9
:101A5000730B840BBAF09150A1F0FF0FBB1F661FF0
:101A6000771F881FC2F70EC0BA0F621F731F841F33
:101A700048F4879577956795B795F7959E3F08F059
:101A8000B0CF9395880F08F09927EE0F979587951B
:101A900008950E94500D6894B1110C94CA0D0895D8
:101AA0000E94AF0D88F09F5798F0B92F9927B75132
:101AB000B0F0E1F0660F771F881F991F1AF0BA95F2
:101AC000C9F714C0B13091F00E94C90DB1E008957A
:101AD0000C94C90D672F782F8827B85F39F0B93F6C
:101AE000CCF3869577956795B395D9F73EF49095A5
:101AF0008095709561957F4F8F4F9F4F089597F90F
:101B00009F6780E870E060E008959FEF80EC0895A3
:101B100000240A94161617061806090608950024CC
:101B20000A9412161306140605060895092E039446
:101B3000000C11F4882352F0BB0F40F4BF2B11F4BA
:101B400060FF04C06F5F7F4F8F4F9F4F089557FD19
:101B50009058440F551F59F05F3F71F04795880F1B
:101B600097FB991F61F09F3F79F0879508951216B2
:101B700013061406551FF2CF4695F1DF08C016165E
:101B800017061806991FF1CF86957105610508940F
:101B90000895E894BB2766277727CB0197F9089526
:101BA000991B79E004C0991F961708F0961B881FAF
:101BB0007A95C9F780950895AA1BBB1B51E107C010
:101BC000AA1FBB1FA617B70710F0A61BB70B881FCD
:101BD000991F5A95A9F780959095BC01CD0108955C
:101BE000EE0FFF1F0590F491E02D09940E94AA0EBC
:101BF00008F481E008950E940F0E0C94960D0E9447
:101C00008F0D58F00E94880D40F029F45F3F29F0B5
:101C10000C947F0D51110C94CA0D0C94850D0E94EB
:101C2000A70D68F39923B1F3552391F3951B550B39
:101C3000BB27AA2762177307840738F09F5F5F4F9F
:101C4000220F331F441FAA1FA9F335D00E2E3AF0DE
:101C5000E0E832D091505040E695001CCAF72BD0F6
:101C6000FE2F29D0660F771F881FBB1F2617370747
:101C70004807AB07B0E809F0BB0B802DBF01FF2779
:101C800093585F4F3AF09E3F510578F00C947F0DCA
:101C90000C94CA0D5F3FE4F3983ED4F38695779594
:101CA0006795B795F7959F5FC9F7880F911D969532
:101CB000879597F90895E1E0660F771F881FBB1F8E
:101CC000621773078407BA0720F0621B730B840B3B
:101CD000BA0BEE1F88F7E0950895E89409C097FBCA
:101CE0003EF490958095709561957F4F8F4F9F4FF3
:101CF0009923A9F0F92F96E9BB279395F695879537
:101D000077956795B795F111F8CFFAF4BB0F11F4F9
:101D100060FF1BC06F5F7F4F8F4F9F4F16C08823A0
:101D200011F096E911C0772321F09EE8872F762FD6
:101D300005C0662371F096E8862F70E060E02AF017
:101D40009A95660F771F881FDAF7880F9695879503
:101D500097F90895990F0008550FAA0BE0E8FEEFD8
:101D600016161706E807F907C0F012161306E4075F
:101D7000F50798F0621B730B840B950B39F40A2658
:101D800061F0232B242B252B21F408950A2609F436
:101D9000A140A6958FEF811D811D08950E94E10E3F
:101DA0000C94960D0E94880D38F00E948F0D20F043
:101DB000952311F00C947F0D0C94850D11240C9437
:101DC000CA0D0E94A70D70F3959FC1F3950F50E0C7
:101DD000551F629FF001729FBB27F00DB11D639FDD
:101DE000AA27F00DB11DAA1F649F6627B00DA11D83
:101DF000661F829F2227B00DA11D621F739FB00D29
:101E0000A11D621F839FA00D611D221F749F332798
:101E1000A00D611D231F849F600D211D822F762F31
:101E20006A2F11249F5750409AF0F1F088234AF00E
:101E3000EE0FFF1FBB1F661F771F881F915050407A
:101E4000A9F79E3F510580F00C947F0D0C94CA0DAC
:101E50005F3FE4F3983ED4F3869577956795B79501
:101E6000F795E7959F5FC1F7FE2B880F911D96951B
:0A1E7000879597F90895F894FFCFC5
:101E7A000103020001010101000102000001024DFB
:101E8A00616E6F65757672652031004D616E6F65A2
:101E9A00757672652032004D616E6F657576726572
:101EAA002033004D616E6F65757672652034004D82
:101EBA00616E6F6575767265203500436F6D626974
:101ECA006E6169736F6E206E6F6E206576616C75D8
:101EDA006565003000202D2000473A002E00433A65
:101EEA0000443A004E4F4E45004F4B004154544572
:101EFA004E54494F4E0044414E47455200207C20E3
:101F0A000028002D0029004672657175656E6365AB
:101F1A0020646520646574656374696F6E203A2075
:101F2A000020487A0A0039363030206270730A007D
:101F3A0032343030206270730A004D6F6465206459
:101F4A006520646574656374696F6E203A20004584
:101F5A006E20666F6E6374696F6E206465206C61B3
:101F6A00206672657175656E6365005375722063CC
:101F7A0068616E67656D656E742064652064697357
:101F8A0074616E636500537572206368616E67657C
:101F9A006D656E742064652063617465676F72692C
:101FAA0065004D6F646520647520636F6E76657297
:101FBA0074697373657572203A2000496E7465728C
:101FCA006E650045787465726E65004D6F646520B4
:101FDA006427616666696368616765203A2000481C
:101FEA00657861646563696D616C00446563696DF8
:041FFA00616C000016
:00000001FF
